{
    "abi": [
        {
            "inputs": [
                {
                    "internalType": "string",
                    "name": "name",
                    "type": "string"
                },
                {
                    "internalType": "string",
                    "name": "symbol",
                    "type": "string"
                }
            ],
            "stateMutability": "nonpayable",
            "type": "constructor"
        },
        {
            "inputs": [
                {
                    "internalType": "address",
                    "name": "sender",
                    "type": "address"
                },
                {
                    "internalType": "uint256",
                    "name": "tokenId",
                    "type": "uint256"
                },
                {
                    "internalType": "address",
                    "name": "owner",
                    "type": "address"
                }
            ],
            "name": "ERC721IncorrectOwner",
            "type": "error"
        },
        {
            "inputs": [
                {
                    "internalType": "address",
                    "name": "operator",
                    "type": "address"
                },
                {
                    "internalType": "uint256",
                    "name": "tokenId",
                    "type": "uint256"
                }
            ],
            "name": "ERC721InsufficientApproval",
            "type": "error"
        },
        {
            "inputs": [
                {
                    "internalType": "address",
                    "name": "approver",
                    "type": "address"
                }
            ],
            "name": "ERC721InvalidApprover",
            "type": "error"
        },
        {
            "inputs": [
                {
                    "internalType": "address",
                    "name": "operator",
                    "type": "address"
                }
            ],
            "name": "ERC721InvalidOperator",
            "type": "error"
        },
        {
            "inputs": [
                {
                    "internalType": "address",
                    "name": "owner",
                    "type": "address"
                }
            ],
            "name": "ERC721InvalidOwner",
            "type": "error"
        },
        {
            "inputs": [
                {
                    "internalType": "address",
                    "name": "receiver",
                    "type": "address"
                }
            ],
            "name": "ERC721InvalidReceiver",
            "type": "error"
        },
        {
            "inputs": [
                {
                    "internalType": "address",
                    "name": "sender",
                    "type": "address"
                }
            ],
            "name": "ERC721InvalidSender",
            "type": "error"
        },
        {
            "inputs": [
                {
                    "internalType": "uint256",
                    "name": "tokenId",
                    "type": "uint256"
                }
            ],
            "name": "ERC721NonexistentToken",
            "type": "error"
        },
        {
            "anonymous": false,
            "inputs": [
                {
                    "indexed": true,
                    "internalType": "address",
                    "name": "owner",
                    "type": "address"
                },
                {
                    "indexed": true,
                    "internalType": "address",
                    "name": "approved",
                    "type": "address"
                },
                {
                    "indexed": true,
                    "internalType": "uint256",
                    "name": "tokenId",
                    "type": "uint256"
                }
            ],
            "name": "Approval",
            "type": "event"
        },
        {
            "anonymous": false,
            "inputs": [
                {
                    "indexed": true,
                    "internalType": "address",
                    "name": "owner",
                    "type": "address"
                },
                {
                    "indexed": true,
                    "internalType": "address",
                    "name": "operator",
                    "type": "address"
                },
                {
                    "indexed": false,
                    "internalType": "bool",
                    "name": "approved",
                    "type": "bool"
                }
            ],
            "name": "ApprovalForAll",
            "type": "event"
        },
        {
            "anonymous": false,
            "inputs": [
                {
                    "indexed": true,
                    "internalType": "address",
                    "name": "from",
                    "type": "address"
                },
                {
                    "indexed": true,
                    "internalType": "address",
                    "name": "to",
                    "type": "address"
                },
                {
                    "indexed": true,
                    "internalType": "uint256",
                    "name": "tokenId",
                    "type": "uint256"
                }
            ],
            "name": "Transfer",
            "type": "event"
        },
        {
            "inputs": [
                {
                    "internalType": "address",
                    "name": "",
                    "type": "address"
                },
                {
                    "internalType": "uint256",
                    "name": "",
                    "type": "uint256"
                }
            ],
            "name": "alreadyVoted",
            "outputs": [
                {
                    "internalType": "bool",
                    "name": "",
                    "type": "bool"
                }
            ],
            "stateMutability": "view",
            "type": "function"
        },
        {
            "inputs": [
                {
                    "internalType": "address",
                    "name": "to",
                    "type": "address"
                },
                {
                    "internalType": "uint256",
                    "name": "tokenId",
                    "type": "uint256"
                }
            ],
            "name": "approve",
            "outputs": [],
            "stateMutability": "nonpayable",
            "type": "function"
        },
        {
            "inputs": [
                {
                    "internalType": "address",
                    "name": "owner",
                    "type": "address"
                }
            ],
            "name": "balanceOf",
            "outputs": [
                {
                    "internalType": "uint256",
                    "name": "",
                    "type": "uint256"
                }
            ],
            "stateMutability": "view",
            "type": "function"
        },
        {
            "inputs": [
                {
                    "internalType": "uint256",
                    "name": "tokenId",
                    "type": "uint256"
                }
            ],
            "name": "getApproved",
            "outputs": [
                {
                    "internalType": "address",
                    "name": "",
                    "type": "address"
                }
            ],
            "stateMutability": "view",
            "type": "function"
        },
        {
            "inputs": [
                {
                    "internalType": "address",
                    "name": "user",
                    "type": "address"
                }
            ],
            "name": "get_All_Votes_from_User",
            "outputs": [
                {
                    "internalType": "uint256[]",
                    "name": "",
                    "type": "uint256[]"
                }
            ],
            "stateMutability": "view",
            "type": "function"
        },
        {
            "inputs": [
                {
                    "internalType": "uint256",
                    "name": "VoteID",
                    "type": "uint256"
                }
            ],
            "name": "get_Vote_Infos",
            "outputs": [
                {
                    "internalType": "uint256",
                    "name": "",
                    "type": "uint256"
                },
                {
                    "internalType": "address",
                    "name": "",
                    "type": "address"
                },
                {
                    "internalType": "uint256",
                    "name": "",
                    "type": "uint256"
                },
                {
                    "internalType": "uint256",
                    "name": "",
                    "type": "uint256"
                },
                {
                    "internalType": "string",
                    "name": "",
                    "type": "string"
                },
                {
                    "internalType": "string",
                    "name": "",
                    "type": "string"
                },
                {
                    "internalType": "string",
                    "name": "",
                    "type": "string"
                },
                {
                    "internalType": "uint256",
                    "name": "",
                    "type": "uint256"
                },
                {
                    "internalType": "uint256",
                    "name": "",
                    "type": "uint256"
                }
            ],
            "stateMutability": "view",
            "type": "function"
        },
        {
            "inputs": [
                {
                    "internalType": "uint256",
                    "name": "VoteID",
                    "type": "uint256"
                },
                {
                    "internalType": "bool",
                    "name": "a_or_b",
                    "type": "bool"
                }
            ],
            "name": "increase_vote",
            "outputs": [],
            "stateMutability": "nonpayable",
            "type": "function"
        },
        {
            "inputs": [
                {
                    "internalType": "string",
                    "name": "answer_a",
                    "type": "string"
                },
                {
                    "internalType": "string",
                    "name": "answer_b",
                    "type": "string"
                },
                {
                    "internalType": "string",
                    "name": "desc",
                    "type": "string"
                },
                {
                    "internalType": "uint256",
                    "name": "ending_time",
                    "type": "uint256"
                }
            ],
            "name": "initialize_vote",
            "outputs": [],
            "stateMutability": "nonpayable",
            "type": "function"
        },
        {
            "inputs": [
                {
                    "internalType": "address",
                    "name": "owner",
                    "type": "address"
                },
                {
                    "internalType": "address",
                    "name": "operator",
                    "type": "address"
                }
            ],
            "name": "isApprovedForAll",
            "outputs": [
                {
                    "internalType": "bool",
                    "name": "",
                    "type": "bool"
                }
            ],
            "stateMutability": "view",
            "type": "function"
        },
        {
            "inputs": [],
            "name": "name",
            "outputs": [
                {
                    "internalType": "string",
                    "name": "",
                    "type": "string"
                }
            ],
            "stateMutability": "view",
            "type": "function"
        },
        {
            "inputs": [
                {
                    "internalType": "uint256",
                    "name": "",
                    "type": "uint256"
                }
            ],
            "name": "nftattribues",
            "outputs": [
                {
                    "internalType": "uint256",
                    "name": "VoteID",
                    "type": "uint256"
                },
                {
                    "internalType": "address",
                    "name": "publisher_address",
                    "type": "address"
                },
                {
                    "internalType": "uint256",
                    "name": "counter_vote_A",
                    "type": "uint256"
                },
                {
                    "internalType": "uint256",
                    "name": "counter_vote_B",
                    "type": "uint256"
                },
                {
                    "internalType": "string",
                    "name": "answer_A",
                    "type": "string"
                },
                {
                    "internalType": "string",
                    "name": "answer_B",
                    "type": "string"
                },
                {
                    "internalType": "string",
                    "name": "desc",
                    "type": "string"
                },
                {
                    "internalType": "uint256",
                    "name": "starting_time",
                    "type": "uint256"
                },
                {
                    "internalType": "uint256",
                    "name": "ending_time",
                    "type": "uint256"
                }
            ],
            "stateMutability": "view",
            "type": "function"
        },
        {
            "inputs": [
                {
                    "internalType": "uint256",
                    "name": "tokenId",
                    "type": "uint256"
                }
            ],
            "name": "ownerOf",
            "outputs": [
                {
                    "internalType": "address",
                    "name": "",
                    "type": "address"
                }
            ],
            "stateMutability": "view",
            "type": "function"
        },
        {
            "inputs": [
                {
                    "internalType": "address",
                    "name": "from",
                    "type": "address"
                },
                {
                    "internalType": "address",
                    "name": "to",
                    "type": "address"
                },
                {
                    "internalType": "uint256",
                    "name": "tokenId",
                    "type": "uint256"
                }
            ],
            "name": "safeTransferFrom",
            "outputs": [],
            "stateMutability": "nonpayable",
            "type": "function"
        },
        {
            "inputs": [
                {
                    "internalType": "address",
                    "name": "from",
                    "type": "address"
                },
                {
                    "internalType": "address",
                    "name": "to",
                    "type": "address"
                },
                {
                    "internalType": "uint256",
                    "name": "tokenId",
                    "type": "uint256"
                },
                {
                    "internalType": "bytes",
                    "name": "data",
                    "type": "bytes"
                }
            ],
            "name": "safeTransferFrom",
            "outputs": [],
            "stateMutability": "nonpayable",
            "type": "function"
        },
        {
            "inputs": [
                {
                    "internalType": "address",
                    "name": "operator",
                    "type": "address"
                },
                {
                    "internalType": "bool",
                    "name": "approved",
                    "type": "bool"
                }
            ],
            "name": "setApprovalForAll",
            "outputs": [],
            "stateMutability": "nonpayable",
            "type": "function"
        },
        {
            "inputs": [
                {
                    "internalType": "bytes4",
                    "name": "interfaceId",
                    "type": "bytes4"
                }
            ],
            "name": "supportsInterface",
            "outputs": [
                {
                    "internalType": "bool",
                    "name": "",
                    "type": "bool"
                }
            ],
            "stateMutability": "view",
            "type": "function"
        },
        {
            "inputs": [],
            "name": "symbol",
            "outputs": [
                {
                    "internalType": "string",
                    "name": "",
                    "type": "string"
                }
            ],
            "stateMutability": "view",
            "type": "function"
        },
        {
            "inputs": [
                {
                    "internalType": "uint256",
                    "name": "tokenId",
                    "type": "uint256"
                }
            ],
            "name": "tokenURI",
            "outputs": [
                {
                    "internalType": "string",
                    "name": "",
                    "type": "string"
                }
            ],
            "stateMutability": "view",
            "type": "function"
        },
        {
            "inputs": [],
            "name": "totalVote",
            "outputs": [
                {
                    "internalType": "uint256",
                    "name": "",
                    "type": "uint256"
                }
            ],
            "stateMutability": "view",
            "type": "function"
        },
        {
            "inputs": [
                {
                    "internalType": "address",
                    "name": "from",
                    "type": "address"
                },
                {
                    "internalType": "address",
                    "name": "to",
                    "type": "address"
                },
                {
                    "internalType": "uint256",
                    "name": "tokenId",
                    "type": "uint256"
                }
            ],
            "name": "transferFrom",
            "outputs": [],
            "stateMutability": "nonpayable",
            "type": "function"
        },
        {
            "inputs": [],
            "name": "update_Active_Vote",
            "outputs": [
                {
                    "internalType": "uint256[]",
                    "name": "",
                    "type": "uint256[]"
                }
            ],
            "stateMutability": "view",
            "type": "function"
        },
        {
            "inputs": [
                {
                    "internalType": "address",
                    "name": "",
                    "type": "address"
                },
                {
                    "internalType": "uint256",
                    "name": "",
                    "type": "uint256"
                }
            ],
            "name": "userVotes",
            "outputs": [
                {
                    "internalType": "uint256",
                    "name": "",
                    "type": "uint256"
                }
            ],
            "stateMutability": "view",
            "type": "function"
        }
    ],
    "bytecode": {
        "object": "0x608060405260006006553480156200001657600080fd5b5060405162001ed038038062001ed0833981016040819052620000399162000128565b8181600062000049838262000221565b50600162000058828262000221565b5050505050620002ed565b634e487b7160e01b600052604160045260246000fd5b600082601f8301126200008b57600080fd5b81516001600160401b0380821115620000a857620000a862000063565b604051601f8301601f19908116603f01168101908282118183101715620000d357620000d362000063565b81604052838152602092508683858801011115620000f057600080fd5b600091505b83821015620001145785820183015181830184015290820190620000f5565b600093810190920192909252949350505050565b600080604083850312156200013c57600080fd5b82516001600160401b03808211156200015457600080fd5b620001628683870162000079565b935060208501519150808211156200017957600080fd5b50620001888582860162000079565b9150509250929050565b600181811c90821680620001a757607f821691505b602082108103620001c857634e487b7160e01b600052602260045260246000fd5b50919050565b601f8211156200021c57600081815260208120601f850160051c81016020861015620001f75750805b601f850160051c820191505b81811015620002185782815560010162000203565b5050505b505050565b81516001600160401b038111156200023d576200023d62000063565b62000255816200024e845462000192565b84620001ce565b602080601f8311600181146200028d5760008415620002745750858301515b600019600386901b1c1916600185901b17855562000218565b600085815260208120601f198616915b82811015620002be578886015182559484019460019091019084016200029d565b5085821015620002dd5787850151600019600388901b60f8161c191681555b5050505050600190811b01905550565b611bd380620002fd6000396000f3fe608060405234801561001057600080fd5b50600436106101425760003560e01c80638b3511f7116100b8578063bc2c03311161007c578063bc2c0331146102c2578063c87b56dd146102d5578063e499dacf146102e8578063e985e9c514610316578063f1cea4c714610329578063f9780fc41461033257600080fd5b80638b3511f71461025957806395d89b411461026c578063a22cb46514610274578063a4d2c13114610287578063b88d4fde146102af57600080fd5b80631a0adbdc1161010a5780631a0adbdc146101d957806323b872dd146101ec5780633dd3a6fc146101ff57806342842e0e146102125780636352211e1461022557806370a082311461023857600080fd5b806301ffc9a7146101475780630312de8b1461016f57806306fdde0314610184578063081812fc14610199578063095ea7b3146101c4575b600080fd5b61015a610155366004611557565b610345565b60405190151581526020015b60405180910390f35b610177610397565b6040516101669190611574565b61018c61047c565b6040516101669190611608565b6101ac6101a736600461161b565b61050e565b6040516001600160a01b039091168152602001610166565b6101d76101d2366004611650565b610537565b005b6101776101e736600461167a565b610546565b6101d76101fa366004611695565b6105b2565b6101d761020d36600461177d565b610642565b6101d7610220366004611695565b6107a3565b6101ac61023336600461161b565b6107c3565b61024b61024636600461167a565b6107ce565b604051908152602001610166565b61024b610267366004611650565b610816565b61018c610847565b6101d761028236600461181d565b610856565b61029a61029536600461161b565b610861565b60405161016699989796959493929190611850565b6101d76102bd3660046118c6565b610a4c565b6101d76102d0366004611942565b610a63565b61018c6102e336600461161b565b610b5e565b61015a6102f6366004611650565b600860209081526000928352604080842090915290825290205460ff1681565b61015a610324366004611965565b610bd3565b61024b60065481565b61029a61034036600461161b565b610c01565b60006001600160e01b031982166380ac58cd60e01b148061037657506001600160e01b03198216635b5e139f60e01b145b8061039157506301ffc9a760e01b6001600160e01b03198316145b92915050565b6060600060065467ffffffffffffffff8111156103b6576103b66116d1565b6040519080825280602002602001820160405280156103df578160200160208202803683370190505b509050600060015b600654811161044757600081815260076020526040902060080154421015610435578083838151811061041c5761041c61198f565b602090810291909101015281610431816119a5565b9250505b8061043f816119a5565b9150506103e7565b5080600003610475576040805160018082528183019092529060208083019080368337019050509250505090565b8152919050565b60606000805461048b906119cc565b80601f01602080910402602001604051908101604052809291908181526020018280546104b7906119cc565b80156105045780601f106104d957610100808354040283529160200191610504565b820191906000526020600020905b8154815290600101906020018083116104e757829003601f168201915b5050505050905090565b600061051982610e97565b506000828152600460205260409020546001600160a01b0316610391565b610542828233610ed0565b5050565b6001600160a01b0381166000908152600960209081526040918290208054835181840281018401909452808452606093928301828280156105a657602002820191906000526020600020905b815481526020019060010190808311610592575b50505050509050919050565b6001600160a01b0382166105e157604051633250574960e11b8152600060048201526024015b60405180910390fd5b60006105ee838333610edd565b9050836001600160a01b0316816001600160a01b03161461063c576040516364283d7b60e01b81526001600160a01b03808616600483015260248201849052821660448201526064016105d8565b50505050565b60068054906000610652836119a5565b919050555061066330600654610fd6565b4281116106bc5760405162461bcd60e51b815260206004820152602160248201527f456e64696e672074696d65206d75737420626520696e207468652066757475726044820152606560f81b60648201526084016105d8565b6040805161012081018252600654808252336020808401918252600084860181815260608601828152608087018c815260a088018c905260c088018b90524260e089015261010088018a905295835260079093529590208451815591516001830180546001600160a01b0319166001600160a01b03909216919091179055935160028201559251600384015551909190600482019061075b9082611a54565b5060a082015160058201906107709082611a54565b5060c082015160068201906107859082611a54565b5060e082015160078201556101009091015160089091015550505050565b6107be83838360405180602001604052806000815250610a4c565b505050565b600061039182610e97565b60006001600160a01b0382166107fa576040516322718ad960e21b8152600060048201526024016105d8565b506001600160a01b031660009081526003602052604090205490565b6009602052816000526040600020818154811061083257600080fd5b90600052602060002001600091509150505481565b60606001805461048b906119cc565b61054233838361103b565b6007602052600090815260409020805460018201546002830154600384015460048501805494956001600160a01b0390941694929391926108a1906119cc565b80601f01602080910402602001604051908101604052809291908181526020018280546108cd906119cc565b801561091a5780601f106108ef5761010080835404028352916020019161091a565b820191906000526020600020905b8154815290600101906020018083116108fd57829003601f168201915b50505050509080600501805461092f906119cc565b80601f016020809104026020016040519081016040528092919081815260200182805461095b906119cc565b80156109a85780601f1061097d576101008083540402835291602001916109a8565b820191906000526020600020905b81548152906001019060200180831161098b57829003601f168201915b5050505050908060060180546109bd906119cc565b80601f01602080910402602001604051908101604052809291908181526020018280546109e9906119cc565b8015610a365780601f10610a0b57610100808354040283529160200191610a36565b820191906000526020600020905b815481529060010190602001808311610a1957829003601f168201915b5050505050908060070154908060080154905089565b610a578484846105b2565b61063c848484846110da565b33600090815260086020908152604080832085845290915290205460ff1615610ac75760405162461bcd60e51b8152602060048201526016602482015275165bdd481a185d9948185b1c9958591e481d9bdd195960521b60448201526064016105d8565b8015610af4576000828152600760205260408120600201805491610aea836119a5565b9190505550610b17565b6000828152600760205260408120600301805491610b11836119a5565b91905055505b50336000818152600960209081526040808320805460018181018355918552838520018690559383526008825280832094835293905291909120805460ff19169091179055565b6060610b6982610e97565b506000610b8160408051602081019091526000815290565b90506000815111610ba15760405180602001604052806000815250610bcc565b80610bab84611203565b604051602001610bbc929190611b14565b6040516020818303038152906040525b9392505050565b6001600160a01b03918216600090815260056020908152604080832093909416825291909152205460ff1690565b60008060008060608060606000806000600760008c815260200190815260200160002060405180610120016040529081600082015481526020016001820160009054906101000a90046001600160a01b03166001600160a01b03166001600160a01b031681526020016002820154815260200160038201548152602001600482018054610c8d906119cc565b80601f0160208091040260200160405190810160405280929190818152602001828054610cb9906119cc565b8015610d065780601f10610cdb57610100808354040283529160200191610d06565b820191906000526020600020905b815481529060010190602001808311610ce957829003601f168201915b50505050508152602001600582018054610d1f906119cc565b80601f0160208091040260200160405190810160405280929190818152602001828054610d4b906119cc565b8015610d985780601f10610d6d57610100808354040283529160200191610d98565b820191906000526020600020905b815481529060010190602001808311610d7b57829003601f168201915b50505050508152602001600682018054610db1906119cc565b80601f0160208091040260200160405190810160405280929190818152602001828054610ddd906119cc565b8015610e2a5780601f10610dff57610100808354040283529160200191610e2a565b820191906000526020600020905b815481529060010190602001808311610e0d57829003601f168201915b50505050508152602001600782015481526020016008820154815250509050806000015181602001518260400151836060015184608001518560a001518660c001518760e00151886101000151995099509950995099509950995099509950509193959799909294969850565b6000818152600260205260408120546001600160a01b03168061039157604051637e27328960e01b8152600481018490526024016105d8565b6107be8383836001611296565b6000828152600260205260408120546001600160a01b0390811690831615610f0a57610f0a81848661139c565b6001600160a01b03811615610f4857610f27600085600080611296565b6001600160a01b038116600090815260036020526040902080546000190190555b6001600160a01b03851615610f77576001600160a01b0385166000908152600360205260409020805460010190555b60008481526002602052604080822080546001600160a01b0319166001600160a01b0389811691821790925591518793918516917fddf252ad1be2c89b69c2b068fc378daa952ba7f163c4a11628f55a4df523b3ef91a4949350505050565b6001600160a01b03821661100057604051633250574960e11b8152600060048201526024016105d8565b600061100e83836000610edd565b90506001600160a01b038116156107be576040516339e3563760e11b8152600060048201526024016105d8565b6001600160a01b03821661106d57604051630b61174360e31b81526001600160a01b03831660048201526024016105d8565b6001600160a01b03838116600081815260056020908152604080832094871680845294825291829020805460ff191686151590811790915591519182527f17307eab39ab6107e8899845ad3d59bd9653f200f220920489ca2b5937696c31910160405180910390a3505050565b6001600160a01b0383163b1561063c57604051630a85bd0160e11b81526001600160a01b0384169063150b7a029061111c903390889087908790600401611b43565b6020604051808303816000875af1925050508015611157575060408051601f3d908101601f1916820190925261115491810190611b80565b60015b6111c0573d808015611185576040519150601f19603f3d011682016040523d82523d6000602084013e61118a565b606091505b5080516000036111b857604051633250574960e11b81526001600160a01b03851660048201526024016105d8565b805181602001fd5b6001600160e01b03198116630a85bd0160e11b146111fc57604051633250574960e11b81526001600160a01b03851660048201526024016105d8565b5050505050565b6060600061121083611400565b600101905060008167ffffffffffffffff811115611230576112306116d1565b6040519080825280601f01601f19166020018201604052801561125a576020820181803683370190505b5090508181016020015b600019016f181899199a1a9b1b9c1cb0b131b232b360811b600a86061a8153600a850494508461126457509392505050565b80806112aa57506001600160a01b03821615155b1561136c5760006112ba84610e97565b90506001600160a01b038316158015906112e65750826001600160a01b0316816001600160a01b031614155b80156112f957506112f78184610bd3565b155b156113225760405163a9fbf51f60e01b81526001600160a01b03841660048201526024016105d8565b811561136a5783856001600160a01b0316826001600160a01b03167f8c5be1e5ebec7d5bd14f71427d1e84f3dd0314c0f7b2291e5b200ac8c7c3b92560405160405180910390a45b505b5050600090815260046020526040902080546001600160a01b0319166001600160a01b0392909216919091179055565b6113a78383836114d8565b6107be576001600160a01b0383166113d557604051637e27328960e01b8152600481018290526024016105d8565b60405163177e802f60e01b81526001600160a01b0383166004820152602481018290526044016105d8565b60008072184f03e93ff9f4daa797ed6e38ed64bf6a1f0160401b831061143f5772184f03e93ff9f4daa797ed6e38ed64bf6a1f0160401b830492506040015b6d04ee2d6d415b85acef8100000000831061146b576d04ee2d6d415b85acef8100000000830492506020015b662386f26fc10000831061148957662386f26fc10000830492506010015b6305f5e10083106114a1576305f5e100830492506008015b61271083106114b557612710830492506004015b606483106114c7576064830492506002015b600a83106103915760010192915050565b60006001600160a01b038316158015906115365750826001600160a01b0316846001600160a01b0316148061151257506115128484610bd3565b8061153657506000828152600460205260409020546001600160a01b038481169116145b949350505050565b6001600160e01b03198116811461155457600080fd5b50565b60006020828403121561156957600080fd5b8135610bcc8161153e565b6020808252825182820181905260009190848201906040850190845b818110156115ac57835183529284019291840191600101611590565b50909695505050505050565b60005b838110156115d35781810151838201526020016115bb565b50506000910152565b600081518084526115f48160208601602086016115b8565b601f01601f19169290920160200192915050565b602081526000610bcc60208301846115dc565b60006020828403121561162d57600080fd5b5035919050565b80356001600160a01b038116811461164b57600080fd5b919050565b6000806040838503121561166357600080fd5b61166c83611634565b946020939093013593505050565b60006020828403121561168c57600080fd5b610bcc82611634565b6000806000606084860312156116aa57600080fd5b6116b384611634565b92506116c160208501611634565b9150604084013590509250925092565b634e487b7160e01b600052604160045260246000fd5b600067ffffffffffffffff80841115611702576117026116d1565b604051601f8501601f19908116603f0116810190828211818310171561172a5761172a6116d1565b8160405280935085815286868601111561174357600080fd5b858560208301376000602087830101525050509392505050565b600082601f83011261176e57600080fd5b610bcc838335602085016116e7565b6000806000806080858703121561179357600080fd5b843567ffffffffffffffff808211156117ab57600080fd5b6117b78883890161175d565b955060208701359150808211156117cd57600080fd5b6117d98883890161175d565b945060408701359150808211156117ef57600080fd5b506117fc8782880161175d565b949793965093946060013593505050565b8035801515811461164b57600080fd5b6000806040838503121561183057600080fd5b61183983611634565b91506118476020840161180d565b90509250929050565b60006101208b835260018060a01b038b166020840152896040840152886060840152806080840152611884818401896115dc565b905082810360a084015261189881886115dc565b905082810360c08401526118ac81876115dc565b60e084019590955250506101000152979650505050505050565b600080600080608085870312156118dc57600080fd5b6118e585611634565b93506118f360208601611634565b925060408501359150606085013567ffffffffffffffff81111561191657600080fd5b8501601f8101871361192757600080fd5b611936878235602084016116e7565b91505092959194509250565b6000806040838503121561195557600080fd5b823591506118476020840161180d565b6000806040838503121561197857600080fd5b61198183611634565b915061184760208401611634565b634e487b7160e01b600052603260045260246000fd5b6000600182016119c557634e487b7160e01b600052601160045260246000fd5b5060010190565b600181811c908216806119e057607f821691505b602082108103611a0057634e487b7160e01b600052602260045260246000fd5b50919050565b601f8211156107be57600081815260208120601f850160051c81016020861015611a2d5750805b601f850160051c820191505b81811015611a4c57828155600101611a39565b505050505050565b815167ffffffffffffffff811115611a6e57611a6e6116d1565b611a8281611a7c84546119cc565b84611a06565b602080601f831160018114611ab75760008415611a9f5750858301515b600019600386901b1c1916600185901b178555611a4c565b600085815260208120601f198616915b82811015611ae657888601518255948401946001909101908401611ac7565b5085821015611b045787850151600019600388901b60f8161c191681555b5050505050600190811b01905550565b60008351611b268184602088016115b8565b835190830190611b3a8183602088016115b8565b01949350505050565b6001600160a01b0385811682528416602082015260408101839052608060608201819052600090611b76908301846115dc565b9695505050505050565b600060208284031215611b9257600080fd5b8151610bcc8161153e56fea2646970667358221220d22c0d79234d322fc3d77865bb9794b11aa1978e8e72cec6f3a477d14731c6ee64736f6c63430008150033",
        "linkReferences": {}
    },
    "methodIdentifiers": {
        "alreadyVoted(address,uint256)": "e499dacf",
        "approve(address,uint256)": "095ea7b3",
        "balanceOf(address)": "70a08231",
        "getApproved(uint256)": "081812fc",
        "get_All_Votes_from_User(address)": "1a0adbdc",
        "get_Vote_Infos(uint256)": "f9780fc4",
        "increase_vote(uint256,bool)": "bc2c0331",
        "initialize_vote(string,string,string,uint256)": "3dd3a6fc",
        "isApprovedForAll(address,address)": "e985e9c5",
        "name()": "06fdde03",
        "nftattribues(uint256)": "a4d2c131",
        "ownerOf(uint256)": "6352211e",
        "safeTransferFrom(address,address,uint256)": "42842e0e",
        "safeTransferFrom(address,address,uint256,bytes)": "b88d4fde",
        "setApprovalForAll(address,bool)": "a22cb465",
        "supportsInterface(bytes4)": "01ffc9a7",
        "symbol()": "95d89b41",
        "tokenURI(uint256)": "c87b56dd",
        "totalVote()": "f1cea4c7",
        "transferFrom(address,address,uint256)": "23b872dd",
        "update_Active_Vote()": "0312de8b",
        "userVotes(address,uint256)": "8b3511f7"
    },
    "id": 26
}